:040000000DEF00F010
:0400080019EF03F0F9
:10001800FF0059EF03F0000E186E80AE16EF00F0E7
:1000280018EF00F0BDEF00F082A61DEF00F01FEF03
:1000380000F047EF00F060005BF0D9FF60005FF070
:10004800DAFF020EDF6E6F0010FE03F06F0004FE91
:1000580004F06F0008FE05F083506BEC01F020EE11
:1000680001F01650D9261750DA2260000FF0DEFF93
:10007800600013F0DEFF600017F0DEFF60001BF089
:10008800DEFF67EF00F060005BF0D9FF60005FF013
:10009800DAFF010EDF6E6F0008FE03F0815077EC87
:1000A80002F020EE01F01650D9261750DA2260002F
:1000B8000FF0DEFF600013F0DEFF600017F0DEFFD8
:1000C80060001BF0DEFF20EE05F01650D926175011
:1000D800DA226F0017FEDFFF20EE06F01650D92651
:1000E8001750DA226F001BFEDFFF20EE07F01650D4
:1000F800D9261750DA226F001FFEDFFF20EE08F026
:100108001650D9261750DA226F0023FEDFFF20EEA3
:1001180009F01650D9261750DA226F0027FEDFFFA4
:1001280020EE0AF01650D9261750DA226F002BFE5F
:10013800DFFF20EE0BF01650D9261750DA226F0099
:100148002FFEDFFF20EE0CF01650D9261750DA22CA
:100158006F0033FEDFFF20EE0DF01650D926175042
:10016800DA226F0037FEDFFF809E010E186E69EFFE
:1001780001F03701F0AFC3EF00F0C5EF00F069EF11
:1001880001F0F2A7CAEF00F0CCEF00F0F4EF00F0B6
:1001980060005BF0D9FF60005FF0DAFF020EDF6EEF
:1001A8006D00D0FF03F06D00C4FF04F06D00C8FFC0
:1001B80005F0F3516BEC01F020EE01F01650D92652
:1001C8001750DA2260000FF0DEFF600013F0DEFF48
:1001D800600017F0DEFF60001BF0DEFF14EF01F097
:1001E80060005BF0D9FF60005FF0DAFF010EDF6EA0
:1001F8006D00C8FF03F0F15177EC02F020EE01F03A
:100208001650D9261750DA2260000FF0DEFF600082
:1002180013F0DEFF600017F0DEFF60001BF0DEFF6A
:1002280020EE05F01650D9261750DA226D00D7FFB8
:10023800DFFF20EE06F01650D9261750DA226D009F
:10024800DBFFDFFF20EE07F01650D9261750DA2221
:100258006D00DFFFDFFF20EE08F01650D92617509B
:10026800DA226D00E3FFDFFF20EE09F01650D926F1
:100278001750DA226D00E7FFDFFF20EE0AF0165074
:10028800D9261750DA226D00EBFFDFFF20EE0BF0C6
:100298001650D9261750DA226D00EFFFDFFF20EE47
:1002A8000CF01650D9261750DA226D00F3FFDFFF45
:1002B80020EE0DF01650D9261750DA226D00F7FF00
:1002C800DFFF3701F09FB9EF00F0185012000B6EF6
:1002D800000E126E000E136E000E146E000E156ED8
:1002E8000550030B106E0538E842070B116E0450D9
:1002F800076E086AD89007360836D8900736083649
:10030800D8900736083607C012F008C013F0000E60
:1003180013BEFF0E146E156E11501224126E000ECD
:100328001320136E000E1420146E000E1520156E87
:1003380012C007F013C008F014C009F015C00AF085
:10034800020ED8900736083609360A36E82EA5EF89
:1003580001F007C012F008C013F009C014F00AC079
:1003680015F010501224126E000E1320136E000E9A
:100378001420146E000E1520156E12C008F013C05C
:1003880009F014C00AF0076A07C012F008C013F099
:1003980009C014F00AC015F00B501224126E000E9A
:1003A8001320136E000E1420146E000E1520156E07
:1003B80012C008F013C009F014C00AF0076A07C099
:1003C80012F008C013F009C014F00AC015F0035069
:1003D8001224126E000E1320136E000E1420146ED9
:1003E800000E1520156E12C00CF013C00DF014C0CD
:1003F8000EF015C00FF00CC003F00DC004F00EC0D5
:1004080005F00FC006F01200800E8F6E8E50E00BC4
:10041800800AD8A412EF02F014EF02F00AEF02F0FB
:10042800000E916E000E3701006F000EBA6F000EBD
:10043800BB6F000EB86F000EB96F000EBE6F000ED6
:10044800BF6F000EBC6F000EBD6F000EA26F000ED6
:10045800A36F000EA06F000EA16F000EA66F000E16
:10046800A76F000EA46F000EA56F000EAA6F000EF6
:10047800AB6F000EA86F000EA96F000EAE6F000ED6
:10048800AF6F000EAC6F000EAD6F000EB26F000EB6
:10049800B36F000EB06F000EB16F000EB66F000E96
:1004A800B76F000EB46F000EB56F310E036F980E64
:1004B800046F010E056F080E036E070E046E7DECC7
:1004C80003F03901A59D958D000E8F6E6F0038FEE3
:1004D80005F0E00E0516D8A474EF02F076EF02F0EE
:1004E8006AEF02F01200096E0950076E086AD89088
:1004F80007360836D89007360836D89007360836B3
:1005080007C00EF008C00FF0000E0FBEFF0E106EF1
:10051800116E03C007F0050E086ED8900732082E3A
:1005280091EF02F007500E240E6E000E0F200F6E92
:10053800000E1020106E000E1120116E0EC00AF071
:100548000FC00BF010C00CF011C00DF00AC003F082
:100558000BC004F00CC005F00DC006F0120072ECE0
:1005680003F0C4901B0E166E000E176E0FEC00F011
:10057800E806D8A4C2EF02F0C4EF02F0B6EF02F02A
:10058800690E1C181D101E101F10D8A4CEEF02F003
:10059800D0EF02F0B6EF02F0BC90290E1A6E960E5C
:1005A800196E7F0EE82EFED7192EFCD71A2EFAD711
:1005B80000F0BC80290E1A6E960E196E7F0EE82E7A
:1005C800FED7192EFCD71A2EFAD700F0B6EF02F094
:1005D8000DEF00F0000EBA6E000EBB6E000EBC6E82
:1005E800C268EF0EC36EFE0EC46E3A016069F70E64
:1005F800506F4069000E816F000E516F000E416F01
:10060800000E616F000E426F000E526F000E626F97
:10061800436953696369446954696469080E846F5E
:100628000B0EED6F330E0C6F12006F00E8FF01F038
:100638006F00ECFF02F0390195AD25EF03F027EFCD
:1006480003F030EF03F0A5AD2CEF03F02EEF03F02D
:1006580030EF03F049EC03F060000BF0FBFF6000A3
:1006680007F0FAFF1100000E3901C06F000EC16FCC
:10067800000EC26F000EC36F000EC46F000EC56F70
:10068800000EC66F000EC76F120002D856EF03F0B7
:100698000500FA6E2950FD6E2A50FE6EF850FF6E66
:1006A800FA5012003901A59D12002A6A296A080E1B
:1006B800D56E000ED66E000ED76E000EF86E0001D5
:1006C800B3EF02F0620E3901D96F000EDB6F000E36
:1006D800DD6F080EDF6F000EDE6F120082EC03F094
:1006E80037EC03F0EEEC02F066EC03F008EC02F0F5
:1006F800120003C029F004C02AF01200D29A120096
:020708001200DD
:020000040020DA
:10000000FF0FFF0FFF0FFF0FFF0FFF0FFF0FFF0F80
:020000040030CA
:0A0000008CFFF7FF9FFFFFFFFFFFDB
:00000001FF
